{
  "transactions": [
    {
      "hash": "0x65bafd2dda4415e03091a3a411cfd73bcdf636a09effab19604c12fa1823d2f5",
      "transactionType": "CALL",
      "contractName": null,
      "contractAddress": "0x535552719a2494a5b76d0d38ea2daee2bd4282fb",
      "function": "unstake(uint256)",
      "arguments": [
        "99975214315459538872"
      ],
      "transaction": {
        "from": "0xd819ffce7a58b1e835c25617db7b46a00888b013",
        "to": "0x535552719a2494a5b76d0d38ea2daee2bd4282fb",
        "gas": "0x142d7",
        "value": "0x0",
        "input": "0x2e17de780000000000000000000000000000000000000000000000056b6f4fba80836fb8",
        "nonce": "0x7",
        "chainId": "0x82bd"
      },
      "additionalContracts": [],
      "isFixedGasLimit": false
    }
  ],
  "receipts": [
    {
      "status": "0x1",
      "cumulativeGasUsed": "0xe9bc",
      "logs": [
        {
          "address": "0xefd1abb41238e20eae5d73c05ec06e270c452596",
          "topics": [
            "0xddf252ad1be2c89b69c2b068fc378daa952ba7f163c4a11628f55a4df523b3ef",
            "0x000000000000000000000000d819ffce7a58b1e835c25617db7b46a00888b013",
            "0x0000000000000000000000000000000000000000000000000000000000000000"
          ],
          "data": "0x0000000000000000000000000000000000000000000000056b6f4fba80836fb8",
          "blockHash": "0xf627bd4c1c215e219e181681886245a93b2ff0570e112ed175a7d8b95b8a92b7",
          "blockNumber": "0x54e4",
          "transactionHash": "0x65bafd2dda4415e03091a3a411cfd73bcdf636a09effab19604c12fa1823d2f5",
          "transactionIndex": "0x0",
          "logIndex": "0x0",
          "removed": false
        },
        {
          "address": "0x535552719a2494a5b76d0d38ea2daee2bd4282fb",
          "topics": [
            "0xf26c0304cc83daf500e1dc22ab2e3cf954b3d506d62e34d70cc054255079e397",
            "0x000000000000000000000000d819ffce7a58b1e835c25617db7b46a00888b013"
          ],
          "data": "0x0000000000000000000000000000000000000000000000056bc7034017ed483b0000000000000000000000000000000000000000000000056b6f4fba80836fb8",
          "blockHash": "0xf627bd4c1c215e219e181681886245a93b2ff0570e112ed175a7d8b95b8a92b7",
          "blockNumber": "0x54e4",
          "transactionHash": "0x65bafd2dda4415e03091a3a411cfd73bcdf636a09effab19604c12fa1823d2f5",
          "transactionIndex": "0x0",
          "logIndex": "0x1",
          "removed": false
        }
      ],
      "logsBloom": "0x00000000000200000000000000000000004000080000000000000000000000000000000000000000000000000000000000000200000000000400080000000000000000000000000000000008000000000000000000400000200000000000000000000000020000000000000000000800000000000000000000000010000000000000000000000000000000000000000000000000000000000000000000000000000000000000000000000000000000000000000000001000000000000000000000000002000000000000000000000000000000000000000000000000004020000000000000000000000000000000000000000000000000000000000800000000",
      "type": "0x0",
      "transactionHash": "0x65bafd2dda4415e03091a3a411cfd73bcdf636a09effab19604c12fa1823d2f5",
      "transactionIndex": "0x0",
      "blockHash": "0xf627bd4c1c215e219e181681886245a93b2ff0570e112ed175a7d8b95b8a92b7",
      "blockNumber": "0x54e4",
      "gasUsed": "0xe9bc",
      "effectiveGasPrice": "0x454b7a4e100",
      "from": "0xd819ffce7a58b1e835c25617db7b46a00888b013",
      "to": "0x535552719a2494a5b76d0d38ea2daee2bd4282fb",
      "contractAddress": null
    }
  ],
  "libraries": [],
  "pending": [],
  "returns": {},
  "timestamp": 1727712237,
  "chain": 33469,
  "commit": null
}