{
  "transactions": [
    {
      "hash": "0xc8d121624c4b1edc98fd03da791c6c534e7b8f3168ad262b30e37c6f6c89508a",
      "transactionType": "CALL",
      "contractName": null,
      "contractAddress": "0x535552719a2494a5b76d0d38ea2daee2bd4282fb",
      "function": "unstake(uint256)",
      "arguments": [
        "9996562013236360330657"
      ],
      "transaction": {
        "from": "0xd819ffce7a58b1e835c25617db7b46a00888b013",
        "to": "0x535552719a2494a5b76d0d38ea2daee2bd4282fb",
        "gas": "0x142f0",
        "value": "0x0",
        "input": "0x2e17de7800000000000000000000000000000000000000000000021dea2a9afba5033da1",
        "nonce": "0xd",
        "chainId": "0x82bd"
      },
      "additionalContracts": [],
      "isFixedGasLimit": false
    }
  ],
  "receipts": [
    {
      "status": "0x1",
      "cumulativeGasUsed": "0xe9ce",
      "logs": [
        {
          "address": "0xd5ee85248d47a454fbfb9f07b67ced4072ada52e",
          "topics": [
            "0xddf252ad1be2c89b69c2b068fc378daa952ba7f163c4a11628f55a4df523b3ef",
            "0x000000000000000000000000d819ffce7a58b1e835c25617db7b46a00888b013",
            "0x0000000000000000000000000000000000000000000000000000000000000000"
          ],
          "data": "0x00000000000000000000000000000000000000000000021dea2a9afba5033da1",
          "blockHash": "0x509d2cb845f7efd8ad9e7e3fd3bb27d63a314095a9c9e1eb054b0931e4683da5",
          "blockNumber": "0x5a17",
          "transactionHash": "0xc8d121624c4b1edc98fd03da791c6c534e7b8f3168ad262b30e37c6f6c89508a",
          "transactionIndex": "0x0",
          "logIndex": "0x0",
          "removed": false
        },
        {
          "address": "0x535552719a2494a5b76d0d38ea2daee2bd4282fb",
          "topics": [
            "0xf26c0304cc83daf500e1dc22ab2e3cf954b3d506d62e34d70cc054255079e397",
            "0x000000000000000000000000d819ffce7a58b1e835c25617db7b46a00888b013"
          ],
          "data": "0x00000000000000000000000000000000000000000000021e19e0c9bab23fffff00000000000000000000000000000000000000000000021dea2a9afba5033da1",
          "blockHash": "0x509d2cb845f7efd8ad9e7e3fd3bb27d63a314095a9c9e1eb054b0931e4683da5",
          "blockNumber": "0x5a17",
          "transactionHash": "0xc8d121624c4b1edc98fd03da791c6c534e7b8f3168ad262b30e37c6f6c89508a",
          "transactionIndex": "0x0",
          "logIndex": "0x1",
          "removed": false
        }
      ],
      "logsBloom": "0x00000000000000000000000000000000004000080000000000000000000000000000000000000000000000000000000000000200000000000400080000000000000000000000000000000008008000000000000000000000200000000000000000000000020000000000000000000800000000000000000000000010000000000000000000000000000000000000000000000000000000000000000000000000000000000000000000000000000000000000000000040000000000000000000000000002000000000000000000000000000000000000000000000000004020000000000000000000000400000000000000000000000000000000000800000000",
      "type": "0x0",
      "transactionHash": "0xc8d121624c4b1edc98fd03da791c6c534e7b8f3168ad262b30e37c6f6c89508a",
      "transactionIndex": "0x0",
      "blockHash": "0x509d2cb845f7efd8ad9e7e3fd3bb27d63a314095a9c9e1eb054b0931e4683da5",
      "blockNumber": "0x5a17",
      "gasUsed": "0xe9ce",
      "effectiveGasPrice": "0x454b7a4e100",
      "from": "0xd819ffce7a58b1e835c25617db7b46a00888b013",
      "to": "0x535552719a2494a5b76d0d38ea2daee2bd4282fb",
      "contractAddress": null
    }
  ],
  "libraries": [],
  "pending": [],
  "returns": {},
  "timestamp": 1727713912,
  "chain": 33469,
  "commit": null
}