{
  "transactions": [
    {
      "hash": "0x76fe1d954501045d976257bf344fdd5113db4530f85932d872d3922d56608583",
      "transactionType": "CALL",
      "contractName": null,
      "contractAddress": "0x7a0b7e6d24ede78260c9ddbd98e828b0e11a8ea2",
      "function": "unstake(uint256)",
      "arguments": [
        "0"
      ],
      "transaction": {
        "from": "0xd819ffce7a58b1e835c25617db7b46a00888b013",
        "to": "0x7a0b7e6d24ede78260c9ddbd98e828b0e11a8ea2",
        "gas": "0x15b25",
        "value": "0x0",
        "input": "0x2e17de780000000000000000000000000000000000000000000000000000000000000000",
        "nonce": "0xf",
        "chainId": "0x82bd"
      },
      "additionalContracts": [],
      "isFixedGasLimit": false
    }
  ],
  "receipts": [
    {
      "status": "0x1",
      "cumulativeGasUsed": "0xfb54",
      "logs": [
        {
          "address": "0x9e5c257d1c6df74eaa54e58cdccacb924669dc83",
          "topics": [
            "0xddf252ad1be2c89b69c2b068fc378daa952ba7f163c4a11628f55a4df523b3ef",
            "0x000000000000000000000000d819ffce7a58b1e835c25617db7b46a00888b013",
            "0x0000000000000000000000000000000000000000000000000000000000000000"
          ],
          "data": "0x0000000000000000000000000000000000000000000000000000000000000000",
          "blockHash": "0x5fe8e2b8f88e46a318dc82d4084e1a5f119aca09076fceb56f5d9bd3393b54b5",
          "blockNumber": "0x2e6d",
          "transactionHash": "0x76fe1d954501045d976257bf344fdd5113db4530f85932d872d3922d56608583",
          "transactionIndex": "0x0",
          "logIndex": "0x0",
          "removed": false
        },
        {
          "address": "0x7a0b7e6d24ede78260c9ddbd98e828b0e11a8ea2",
          "topics": [
            "0xf26c0304cc83daf500e1dc22ab2e3cf954b3d506d62e34d70cc054255079e397",
            "0x000000000000000000000000d819ffce7a58b1e835c25617db7b46a00888b013"
          ],
          "data": "0x00000000000000000000000000000000000000000000000000000000000000000000000000000000000000000000000000000000000000000000000000000000",
          "blockHash": "0x5fe8e2b8f88e46a318dc82d4084e1a5f119aca09076fceb56f5d9bd3393b54b5",
          "blockNumber": "0x2e6d",
          "transactionHash": "0x76fe1d954501045d976257bf344fdd5113db4530f85932d872d3922d56608583",
          "transactionIndex": "0x0",
          "logIndex": "0x1",
          "removed": false
        }
      ],
      "logsBloom": "0x00000000000000000000000000000000004000080000000000000000000000000000000000000000000000000000000000000200000000000000080000000000000000000000000000000008800000010000000800000000200000000000000000000000020000000000000000800800000000000000000000000010000000000000000000000000000000000000000000000000000000000000000000000000000000000000000000000000000000000100000000000000000000000000000000000002000000000000000000000000000000000000000000000000004020000000000000000000000000000000000000000000000000000000000000400000",
      "type": "0x0",
      "transactionHash": "0x76fe1d954501045d976257bf344fdd5113db4530f85932d872d3922d56608583",
      "transactionIndex": "0x0",
      "blockHash": "0x5fe8e2b8f88e46a318dc82d4084e1a5f119aca09076fceb56f5d9bd3393b54b5",
      "blockNumber": "0x2e6d",
      "gasUsed": "0xfb54",
      "effectiveGasPrice": "0x454b7a4e100",
      "from": "0xd819ffce7a58b1e835c25617db7b46a00888b013",
      "to": "0x7a0b7e6d24ede78260c9ddbd98e828b0e11a8ea2",
      "contractAddress": null
    }
  ],
  "libraries": [],
  "pending": [],
  "returns": {},
  "timestamp": 1727960523,
  "chain": 33469,
  "commit": null
}