{
  "transactions": [
    {
      "hash": "0xf7d76f7a07c452dc4bcbe3f1a768c5564135a45939834799d8c90ddf541e68f8",
      "transactionType": "CALL",
      "contractName": null,
      "contractAddress": "0x535552719a2494a5b76d0d38ea2daee2bd4282fb",
      "function": "unstake(uint256)",
      "arguments": [
        "999755132415951489"
      ],
      "transaction": {
        "from": "0xd819ffce7a58b1e835c25617db7b46a00888b013",
        "to": "0x535552719a2494a5b76d0d38ea2daee2bd4282fb",
        "gas": "0x142cf",
        "value": "0x0",
        "input": "0x2e17de780000000000000000000000000000000000000000000000000ddfd7fefa06c281",
        "nonce": "0xb",
        "chainId": "0x82bd"
      },
      "additionalContracts": [],
      "isFixedGasLimit": false
    }
  ],
  "receipts": [
    {
      "status": "0x1",
      "cumulativeGasUsed": "0xe9b6",
      "logs": [
        {
          "address": "0x997eb918c63803c6d90e1f17f05fc62fef7c4705",
          "topics": [
            "0xddf252ad1be2c89b69c2b068fc378daa952ba7f163c4a11628f55a4df523b3ef",
            "0x000000000000000000000000d819ffce7a58b1e835c25617db7b46a00888b013",
            "0x0000000000000000000000000000000000000000000000000000000000000000"
          ],
          "data": "0x0000000000000000000000000000000000000000000000000ddfd7fefa06c281",
          "blockHash": "0xb00d43c5c3be9de02ef15db812485640a16528d9386e7f71deb271f973f97dd7",
          "blockNumber": "0x5932",
          "transactionHash": "0xf7d76f7a07c452dc4bcbe3f1a768c5564135a45939834799d8c90ddf541e68f8",
          "transactionIndex": "0x0",
          "logIndex": "0x0",
          "removed": false
        },
        {
          "address": "0x535552719a2494a5b76d0d38ea2daee2bd4282fb",
          "topics": [
            "0xf26c0304cc83daf500e1dc22ab2e3cf954b3d506d62e34d70cc054255079e397",
            "0x000000000000000000000000d819ffce7a58b1e835c25617db7b46a00888b013"
          ],
          "data": "0x0000000000000000000000000000000000000000000000000de0b6b3a763ffff0000000000000000000000000000000000000000000000000ddfd7fefa06c281",
          "blockHash": "0xb00d43c5c3be9de02ef15db812485640a16528d9386e7f71deb271f973f97dd7",
          "blockNumber": "0x5932",
          "transactionHash": "0xf7d76f7a07c452dc4bcbe3f1a768c5564135a45939834799d8c90ddf541e68f8",
          "transactionIndex": "0x0",
          "logIndex": "0x1",
          "removed": false
        }
      ],
      "logsBloom": "0x00000000000000000000000000000000004000080000000000000000000000000000000000000000000000000000000000000200000000000400080000000000000000000800000000000008000000000000000000000000200000000000000000000000020000000000000000000800000000000000000000000010000000000000000000020000000000000000000000000000000000000000000000000000000000000000000000000000000000000000000000000000000000000000000000000012000000000000000000000000000000000000000000000000004020000000000000000000000000000000000000000000000000000000000800000000",
      "type": "0x0",
      "transactionHash": "0xf7d76f7a07c452dc4bcbe3f1a768c5564135a45939834799d8c90ddf541e68f8",
      "transactionIndex": "0x0",
      "blockHash": "0xb00d43c5c3be9de02ef15db812485640a16528d9386e7f71deb271f973f97dd7",
      "blockNumber": "0x5932",
      "gasUsed": "0xe9b6",
      "effectiveGasPrice": "0x454b7a4e100",
      "from": "0xd819ffce7a58b1e835c25617db7b46a00888b013",
      "to": "0x535552719a2494a5b76d0d38ea2daee2bd4282fb",
      "contractAddress": null
    }
  ],
  "libraries": [],
  "pending": [],
  "returns": {},
  "timestamp": 1727713618,
  "chain": 33469,
  "commit": null
}