{
  "transactions": [
    {
      "hash": "0xa43ecf79298665f4b2768c871c7976c846195bf310d918dfba43d3e7fad925e6",
      "transactionType": "CALL",
      "contractName": null,
      "contractAddress": "0x7a0b7e6d24ede78260c9ddbd98e828b0e11a8ea2",
      "function": "unstake(uint256)",
      "arguments": [
        "399984236917810964108"
      ],
      "transaction": {
        "from": "0xd819ffce7a58b1e835c25617db7b46a00888b013",
        "to": "0x7a0b7e6d24ede78260c9ddbd98e828b0e11a8ea2",
        "gas": "0x18431",
        "value": "0x0",
        "input": "0x2e17de78000000000000000000000000000000000000000000000015aee57844f9cea68c",
        "nonce": "0x2",
        "chainId": "0x82bd"
      },
      "additionalContracts": [],
      "isFixedGasLimit": false
    }
  ],
  "receipts": [
    {
      "status": "0x1",
      "cumulativeGasUsed": "0x1190c",
      "logs": [
        {
          "address": "0x9e5c257d1c6df74eaa54e58cdccacb924669dc83",
          "topics": [
            "0xddf252ad1be2c89b69c2b068fc378daa952ba7f163c4a11628f55a4df523b3ef",
            "0x000000000000000000000000d819ffce7a58b1e835c25617db7b46a00888b013",
            "0x0000000000000000000000000000000000000000000000000000000000000000"
          ],
          "data": "0x000000000000000000000000000000000000000000000015aee57844f9cea68c",
          "blockHash": "0xaba69af997adba84c3fbea44434073a08d6a9c6e27bf69cf24ed3832eba788b7",
          "blockNumber": "0x2ab3",
          "transactionHash": "0xa43ecf79298665f4b2768c871c7976c846195bf310d918dfba43d3e7fad925e6",
          "transactionIndex": "0x0",
          "logIndex": "0x0",
          "removed": false
        },
        {
          "address": "0x7a0b7e6d24ede78260c9ddbd98e828b0e11a8ea2",
          "topics": [
            "0xf26c0304cc83daf500e1dc22ab2e3cf954b3d506d62e34d70cc054255079e397",
            "0x000000000000000000000000d819ffce7a58b1e835c25617db7b46a00888b013"
          ],
          "data": "0x000000000000000000000000000000000000000000000015af472f1bfdb17aa4000000000000000000000000000000000000000000000015aee57844f9cea68c",
          "blockHash": "0xaba69af997adba84c3fbea44434073a08d6a9c6e27bf69cf24ed3832eba788b7",
          "blockNumber": "0x2ab3",
          "transactionHash": "0xa43ecf79298665f4b2768c871c7976c846195bf310d918dfba43d3e7fad925e6",
          "transactionIndex": "0x0",
          "logIndex": "0x1",
          "removed": false
        }
      ],
      "logsBloom": "0x00000000000000000000000000000000004000080000000000000000000000000000000000000000000000000000000000000200000000000000080000000000000000000000000000000008800000010000000800000000200000000000000000000000020000000000000000800800000000000000000000000010000000000000000000000000000000000000000000000000000000000000000000000000000000000000000000000000000000000100000000000000000000000000000000000002000000000000000000000000000000000000000000000000004020000000000000000000000000000000000000000000000000000000000000400000",
      "type": "0x0",
      "transactionHash": "0xa43ecf79298665f4b2768c871c7976c846195bf310d918dfba43d3e7fad925e6",
      "transactionIndex": "0x0",
      "blockHash": "0xaba69af997adba84c3fbea44434073a08d6a9c6e27bf69cf24ed3832eba788b7",
      "blockNumber": "0x2ab3",
      "gasUsed": "0x1190c",
      "effectiveGasPrice": "0x454b7a4e100",
      "from": "0xd819ffce7a58b1e835c25617db7b46a00888b013",
      "to": "0x7a0b7e6d24ede78260c9ddbd98e828b0e11a8ea2",
      "contractAddress": null
    }
  ],
  "libraries": [],
  "pending": [],
  "returns": {},
  "timestamp": 1727958059,
  "chain": 33469,
  "commit": null
}