{
  "transactions": [
    {
      "hash": "0xbbdf84640d460c8e66984d26bb685719276eae18fa014c9203104bb3062656c3",
      "transactionType": "CALL",
      "contractName": null,
      "contractAddress": "0x535552719a2494a5b76d0d38ea2daee2bd4282fb",
      "function": "unstake(uint256)",
      "arguments": [
        "99"
      ],
      "transaction": {
        "from": "0xd819ffce7a58b1e835c25617db7b46a00888b013",
        "to": "0x535552719a2494a5b76d0d38ea2daee2bd4282fb",
        "gas": "0x15574",
        "value": "0x0",
        "input": "0x2e17de780000000000000000000000000000000000000000000000000000000000000063",
        "nonce": "0x11",
        "chainId": "0x82bd"
      },
      "additionalContracts": [],
      "isFixedGasLimit": false
    }
  ],
  "receipts": [
    {
      "status": "0x1",
      "cumulativeGasUsed": "0xe979",
      "logs": [
        {
          "address": "0x24e2b1b8f436810bf584b483329813f241da7933",
          "topics": [
            "0xddf252ad1be2c89b69c2b068fc378daa952ba7f163c4a11628f55a4df523b3ef",
            "0x000000000000000000000000d819ffce7a58b1e835c25617db7b46a00888b013",
            "0x0000000000000000000000000000000000000000000000000000000000000000"
          ],
          "data": "0x0000000000000000000000000000000000000000000000000000000000000063",
          "blockHash": "0xc52ca320dc04f204d0abfb29b5f5f9f6109ebccadc2c6ca5f01d72fc600be612",
          "blockNumber": "0x5ca5",
          "transactionHash": "0xbbdf84640d460c8e66984d26bb685719276eae18fa014c9203104bb3062656c3",
          "transactionIndex": "0x0",
          "logIndex": "0x0",
          "removed": false
        },
        {
          "address": "0x535552719a2494a5b76d0d38ea2daee2bd4282fb",
          "topics": [
            "0xf26c0304cc83daf500e1dc22ab2e3cf954b3d506d62e34d70cc054255079e397",
            "0x000000000000000000000000d819ffce7a58b1e835c25617db7b46a00888b013"
          ],
          "data": "0x00000000000000000000000000000000000000000000000000000000000000630000000000000000000000000000000000000000000000000000000000000063",
          "blockHash": "0xc52ca320dc04f204d0abfb29b5f5f9f6109ebccadc2c6ca5f01d72fc600be612",
          "blockNumber": "0x5ca5",
          "transactionHash": "0xbbdf84640d460c8e66984d26bb685719276eae18fa014c9203104bb3062656c3",
          "transactionIndex": "0x0",
          "logIndex": "0x1",
          "removed": false
        }
      ],
      "logsBloom": "0x00000000000000000000000002000000004000080000000000000000000000000000000000000000000000000000000000000200000000000400080000000000000000000000000000000008000000000000000000000000200000000000000000000000020000000000000000000800000000000000000000000010000000000000000000000000000002000000000000000000000000000000000000000000000000000000000000000000000000000000000000000000000000000000000000000002000000000000000000000000000000000000000000000000004020000000000000000000000000000000000000000000000000000008000800000000",
      "type": "0x0",
      "transactionHash": "0xbbdf84640d460c8e66984d26bb685719276eae18fa014c9203104bb3062656c3",
      "transactionIndex": "0x0",
      "blockHash": "0xc52ca320dc04f204d0abfb29b5f5f9f6109ebccadc2c6ca5f01d72fc600be612",
      "blockNumber": "0x5ca5",
      "gasUsed": "0xe979",
      "effectiveGasPrice": "0x454b7a4e100",
      "from": "0xd819ffce7a58b1e835c25617db7b46a00888b013",
      "to": "0x535552719a2494a5b76d0d38ea2daee2bd4282fb",
      "contractAddress": null
    }
  ],
  "libraries": [],
  "pending": [],
  "returns": {},
  "timestamp": 1727714728,
  "chain": 33469,
  "commit": null
}