{
  "transactions": [
    {
      "hash": "0xc2e686bab8fe2543a67f04801deced9a56a1c30e9fb593e312f631558005f9aa",
      "transactionType": "CALL",
      "contractName": null,
      "contractAddress": "0x535552719a2494a5b76d0d38ea2daee2bd4282fb",
      "function": "unstake(uint256)",
      "arguments": [
        "49991503770698011912026927"
      ],
      "transaction": {
        "from": "0xd819ffce7a58b1e835c25617db7b46a00888b013",
        "to": "0x535552719a2494a5b76d0d38ea2daee2bd4282fb",
        "gas": "0x15601",
        "value": "0x0",
        "input": "0x2e17de78000000000000000000000000000000000000000000295a1cd985f734b0f9bb2f",
        "nonce": "0xf",
        "chainId": "0x82bd"
      },
      "additionalContracts": [],
      "isFixedGasLimit": false
    }
  ],
  "receipts": [
    {
      "status": "0x1",
      "cumulativeGasUsed": "0xe9da",
      "logs": [
        {
          "address": "0xd5ee85248d47a454fbfb9f07b67ced4072ada52e",
          "topics": [
            "0xddf252ad1be2c89b69c2b068fc378daa952ba7f163c4a11628f55a4df523b3ef",
            "0x000000000000000000000000d819ffce7a58b1e835c25617db7b46a00888b013",
            "0x0000000000000000000000000000000000000000000000000000000000000000"
          ],
          "data": "0x000000000000000000000000000000000000000000295a1cd985f734b0f9bb2f",
          "blockHash": "0x461afc5dcac3af6a635668a2e0e48a1fccd5f1ef768017c8bb25681b2b715638",
          "blockNumber": "0x5afa",
          "transactionHash": "0xc2e686bab8fe2543a67f04801deced9a56a1c30e9fb593e312f631558005f9aa",
          "transactionIndex": "0x0",
          "logIndex": "0x0",
          "removed": false
        },
        {
          "address": "0x535552719a2494a5b76d0d38ea2daee2bd4282fb",
          "topics": [
            "0xf26c0304cc83daf500e1dc22ab2e3cf954b3d506d62e34d70cc054255079e397",
            "0x000000000000000000000000d819ffce7a58b1e835c25617db7b46a00888b013"
          ],
          "data": "0x00000000000000000000000000000000000000000052b7d2dcc80cd2e3ffffff000000000000000000000000000000000000000000295a1cd985f734b0f9bb2f",
          "blockHash": "0x461afc5dcac3af6a635668a2e0e48a1fccd5f1ef768017c8bb25681b2b715638",
          "blockNumber": "0x5afa",
          "transactionHash": "0xc2e686bab8fe2543a67f04801deced9a56a1c30e9fb593e312f631558005f9aa",
          "transactionIndex": "0x0",
          "logIndex": "0x1",
          "removed": false
        }
      ],
      "logsBloom": "0x00000000000000000000000000000000004000080000000000000000000000000000000000000000000000000000000000000200000000000400080000000000000000000000000000000008008000000000000000000000200000000000000000000000020000000000000000000800000000000000000000000010000000000000000000000000000000000000000000000000000000000000000000000000000000000000000000000000000000000000000000040000000000000000000000000002000000000000000000000000000000000000000000000000004020000000000000000000000400000000000000000000000000000000000800000000",
      "type": "0x0",
      "transactionHash": "0xc2e686bab8fe2543a67f04801deced9a56a1c30e9fb593e312f631558005f9aa",
      "transactionIndex": "0x0",
      "blockHash": "0x461afc5dcac3af6a635668a2e0e48a1fccd5f1ef768017c8bb25681b2b715638",
      "blockNumber": "0x5afa",
      "gasUsed": "0xe9da",
      "effectiveGasPrice": "0x454b7a4e100",
      "from": "0xd819ffce7a58b1e835c25617db7b46a00888b013",
      "to": "0x535552719a2494a5b76d0d38ea2daee2bd4282fb",
      "contractAddress": null
    }
  ],
  "libraries": [],
  "pending": [],
  "returns": {},
  "timestamp": 1727714192,
  "chain": 33469,
  "commit": null
}