{
  "transactions": [
    {
      "hash": "0x199a9129ff576aff889dee0165b2f1d295e8b609507e73c4c7de5093e46d9b52",
      "transactionType": "CALL",
      "contractName": null,
      "contractAddress": "0x535552719a2494a5b76d0d38ea2daee2bd4282fb",
      "function": "unstake(uint256)",
      "arguments": [
        "99975514241102485251"
      ],
      "transaction": {
        "from": "0xd819ffce7a58b1e835c25617db7b46a00888b013",
        "to": "0x535552719a2494a5b76d0d38ea2daee2bd4282fb",
        "gas": "0x155de",
        "value": "0x0",
        "input": "0x2e17de780000000000000000000000000000000000000000000000056b70608261eb9703",
        "nonce": "0x9",
        "chainId": "0x82bd"
      },
      "additionalContracts": [],
      "isFixedGasLimit": false
    }
  ],
  "receipts": [
    {
      "status": "0x1",
      "cumulativeGasUsed": "0xe9c2",
      "logs": [
        {
          "address": "0x997eb918c63803c6d90e1f17f05fc62fef7c4705",
          "topics": [
            "0xddf252ad1be2c89b69c2b068fc378daa952ba7f163c4a11628f55a4df523b3ef",
            "0x000000000000000000000000d819ffce7a58b1e835c25617db7b46a00888b013",
            "0x0000000000000000000000000000000000000000000000000000000000000000"
          ],
          "data": "0x0000000000000000000000000000000000000000000000056b70608261eb9703",
          "blockHash": "0x54d5c0b3a727433808da7a3fde87daad4eb45422dac71125bee9408efe25ff24",
          "blockNumber": "0x588d",
          "transactionHash": "0x199a9129ff576aff889dee0165b2f1d295e8b609507e73c4c7de5093e46d9b52",
          "transactionIndex": "0x0",
          "logIndex": "0x0",
          "removed": false
        },
        {
          "address": "0x535552719a2494a5b76d0d38ea2daee2bd4282fb",
          "topics": [
            "0xf26c0304cc83daf500e1dc22ab2e3cf954b3d506d62e34d70cc054255079e397",
            "0x000000000000000000000000d819ffce7a58b1e835c25617db7b46a00888b013"
          ],
          "data": "0x0000000000000000000000000000000000000000000000056bc75e2d630fffff0000000000000000000000000000000000000000000000056b70608261eb9703",
          "blockHash": "0x54d5c0b3a727433808da7a3fde87daad4eb45422dac71125bee9408efe25ff24",
          "blockNumber": "0x588d",
          "transactionHash": "0x199a9129ff576aff889dee0165b2f1d295e8b609507e73c4c7de5093e46d9b52",
          "transactionIndex": "0x0",
          "logIndex": "0x1",
          "removed": false
        }
      ],
      "logsBloom": "0x00000000000000000000000000000000004000080000000000000000000000000000000000000000000000000000000000000200000000000400080000000000000000000800000000000008000000000000000000000000200000000000000000000000020000000000000000000800000000000000000000000010000000000000000000020000000000000000000000000000000000000000000000000000000000000000000000000000000000000000000000000000000000000000000000000012000000000000000000000000000000000000000000000000004020000000000000000000000000000000000000000000000000000000000800000000",
      "type": "0x0",
      "transactionHash": "0x199a9129ff576aff889dee0165b2f1d295e8b609507e73c4c7de5093e46d9b52",
      "transactionIndex": "0x0",
      "blockHash": "0x54d5c0b3a727433808da7a3fde87daad4eb45422dac71125bee9408efe25ff24",
      "blockNumber": "0x588d",
      "gasUsed": "0xe9c2",
      "effectiveGasPrice": "0x454b7a4e100",
      "from": "0xd819ffce7a58b1e835c25617db7b46a00888b013",
      "to": "0x535552719a2494a5b76d0d38ea2daee2bd4282fb",
      "contractAddress": null
    }
  ],
  "libraries": [],
  "pending": [],
  "returns": {},
  "timestamp": 1727713411,
  "chain": 33469,
  "commit": null
}