{
  "transactions": [
    {
      "hash": "0x4aa25ca631f8cffef918d40d60ac8bdbbf39614711bbcb1094081d5e94c5eb9b",
      "transactionType": "CALL",
      "contractName": null,
      "contractAddress": "0x77986d6bcd7e610808ad5d1cf67df3a9ef893fad",
      "function": "stake()",
      "arguments": [],
      "transaction": {
        "from": "0xd819ffce7a58b1e835c25617db7b46a00888b013",
        "to": "0x77986d6bcd7e610808ad5d1cf67df3a9ef893fad",
        "gas": "0x16e08",
        "value": "0x56bc75e2d63100000",
        "input": "0x3a4b66f1",
        "nonce": "0x2",
        "chainId": "0x82bd"
      },
      "additionalContracts": [],
      "isFixedGasLimit": false
    },
    {
      "hash": "0x16963bfa8e7460de3f9e7098ea6eac3bf475bb4804271e55ba22e6b2c50bcb74",
      "transactionType": "CALL",
      "contractName": null,
      "contractAddress": "0x77986d6bcd7e610808ad5d1cf67df3a9ef893fad",
      "function": "unstake(uint256)",
      "arguments": [
        "199280779375980575707"
      ],
      "transaction": {
        "from": "0xd819ffce7a58b1e835c25617db7b46a00888b013",
        "to": "0x77986d6bcd7e610808ad5d1cf67df3a9ef893fad",
        "gas": "0x16a05",
        "value": "0x0",
        "input": "0x2e17de7800000000000000000000000000000000000000000000000acd938d01f44ffbdb",
        "nonce": "0x3",
        "chainId": "0x82bd"
      },
      "additionalContracts": [],
      "isFixedGasLimit": false
    }
  ],
  "receipts": [],
  "libraries": [],
  "pending": [
    "0x4aa25ca631f8cffef918d40d60ac8bdbbf39614711bbcb1094081d5e94c5eb9b",
    "0x16963bfa8e7460de3f9e7098ea6eac3bf475bb4804271e55ba22e6b2c50bcb74"
  ],
  "returns": {},
  "timestamp": 1727685100,
  "chain": 33469,
  "commit": null
}