{
  "transactions": [
    {
      "hash": null,
      "transactionType": "CALL",
      "contractName": null,
      "contractAddress": "0x77986d6bcd7e610808ad5d1cf67df3a9ef893fad",
      "function": "setup(bytes,bytes)",
      "arguments": [
        "0xb0447d886f8499bc0fd4aa21da63d71a0175ddd005d217a00c5304e1272e4a79a7df0ecb878a343582c9f2ca78c8c17f",
        "0x0024080112203f260505ee97570cbc034831097eddf177c4a49151dffb129abdc209329cc7e0"
      ],
      "transaction": {
        "from": "0x15fc323dfe5d5dcfbeedc25cecbf57f676634d77",
        "to": "0x77986d6bcd7e610808ad5d1cf67df3a9ef893fad",
        "gas": "0x189e3",
        "value": "0x0",
        "input": "0x2379b523000000000000000000000000000000000000000000000000000000000000004000000000000000000000000000000000000000000000000000000000000000a00000000000000000000000000000000000000000000000000000000000000030b0447d886f8499bc0fd4aa21da63d71a0175ddd005d217a00c5304e1272e4a79a7df0ecb878a343582c9f2ca78c8c17f0000000000000000000000000000000000000000000000000000000000000000000000000000000000000000000000260024080112203f260505ee97570cbc034831097eddf177c4a49151dffb129abdc209329cc7e00000000000000000000000000000000000000000000000000000",
        "nonce": "0x7fc",
        "chainId": "0x82bd"
      },
      "additionalContracts": [],
      "isFixedGasLimit": false
    },
    {
      "hash": null,
      "transactionType": "CALL",
      "contractName": null,
      "contractAddress": "0x77986d6bcd7e610808ad5d1cf67df3a9ef893fad",
      "function": "stake()",
      "arguments": [],
      "transaction": {
        "from": "0xd819ffce7a58b1e835c25617db7b46a00888b013",
        "to": "0x77986d6bcd7e610808ad5d1cf67df3a9ef893fad",
        "gas": "0x1d7c8",
        "value": "0x56bc75e2d63100000",
        "input": "0x3a4b66f1",
        "nonce": "0x0",
        "chainId": "0x82bd"
      },
      "additionalContracts": [],
      "isFixedGasLimit": false
    }
  ],
  "receipts": [],
  "libraries": [],
  "pending": [],
  "returns": {},
  "timestamp": 1727460260,
  "chain": 33469,
  "commit": null
}