{
  "transactions": [
    {
      "hash": "0x2855b8b1c5a82d311979975a9042942a01c917feae79ed729010e5b9f8e3f40a",
      "transactionType": "CREATE",
      "contractName": "NonRebasingLST",
      "contractAddress": "0xcc1703ea6af044c0df327426ae37eaece41138aa",
      "function": null,
      "arguments": [
        "0x15fc323DFE5D5DCfbeEdc25CEcbf57f676634d77"
      ],
      "transaction": {
        "from": "0x15fc323dfe5d5dcfbeedc25cecbf57f676634d77",
        "gas": "0xc90d0",
        "value": "0x0",
        "input": "0x608060405234801561000f575f80fd5b50604051610bae380380610bae83398101604081905261002e91610118565b806040518060400160405280600781526020016626bcaa37b5b2b760c91b815250604051806040016040528060038152602001624d544b60e81b815250816003908161007a91906101dd565b50600461008782826101dd565b5050506001600160a01b0381166100b757604051631e4fbdf760e01b81525f600482015260240160405180910390fd5b6100c0816100c7565b5050610297565b600580546001600160a01b038381166001600160a01b0319831681179093556040519116919082907f8be0079c531659141344cd1fd0a4f28419497f9722a3daafe3b4186f6b6457e0905f90a35050565b5f60208284031215610128575f80fd5b81516001600160a01b038116811461013e575f80fd5b9392505050565b634e487b7160e01b5f52604160045260245ffd5b600181811c9082168061016d57607f821691505b60208210810361018b57634e487b7160e01b5f52602260045260245ffd5b50919050565b601f8211156101d857805f5260205f20601f840160051c810160208510156101b65750805b601f840160051c820191505b818110156101d5575f81556001016101c2565b50505b505050565b81516001600160401b038111156101f6576101f6610145565b61020a816102048454610159565b84610191565b6020601f82116001811461023c575f83156102255750848201515b5f19600385901b1c1916600184901b1784556101d5565b5f84815260208120601f198516915b8281101561026b578785015182556020948501946001909201910161024b565b508482101561028857868401515f19600387901b60f8161c191681555b50505050600190811b01905550565b61090a806102a45f395ff3fe608060405234801561000f575f80fd5b50600436106100e5575f3560e01c8063715018a6116100885780639dc29fac116100635780639dc29fac146101c6578063a9059cbb146101d9578063dd62ed3e146101ec578063f2fde38b14610224575f80fd5b8063715018a61461019b5780638da5cb5b146101a357806395d89b41146101be575f80fd5b806323b872dd116100c357806323b872dd1461013c578063313ce5671461014f57806340c10f191461015e57806370a0823114610173575f80fd5b806306fdde03146100e9578063095ea7b31461010757806318160ddd1461012a575b5f80fd5b6100f1610237565b6040516100fe9190610764565b60405180910390f35b61011a6101153660046107ca565b6102c7565b60405190151581526020016100fe565b6002545b6040519081526020016100fe565b61011a61014a3660046107f2565b6102e0565b604051601281526020016100fe565b61017161016c3660046107ca565b610303565b005b61012e61018136600461082c565b6001600160a01b03165f9081526020819052604090205490565b610171610319565b6005546040516001600160a01b0390911681526020016100fe565b6100f161032c565b6101716101d43660046107ca565b61033b565b61011a6101e73660046107ca565b61034d565b61012e6101fa36600461084c565b6001600160a01b039182165f90815260016020908152604080832093909416825291909152205490565b61017161023236600461082c565b61035a565b6060600380546102469061087d565b80601f01602080910402602001604051908101604052809291908181526020018280546102729061087d565b80156102bd5780601f10610294576101008083540402835291602001916102bd565b820191905f5260205f20905b8154815290600101906020018083116102a057829003601f168201915b5050505050905090565b5f336102d481858561039c565b60019150505b92915050565b5f336102ed8582856103ae565b6102f8858585610429565b506001949350505050565b61030b610486565b61031582826104b3565b5050565b610321610486565b61032a5f6104e7565b565b6060600480546102469061087d565b610343610486565b6103158282610538565b5f336102d4818585610429565b610362610486565b6001600160a01b03811661039057604051631e4fbdf760e01b81525f60048201526024015b60405180910390fd5b610399816104e7565b50565b6103a9838383600161056c565b505050565b6001600160a01b038381165f908152600160209081526040808320938616835292905220545f198114610423578181101561041557604051637dc7a0d960e11b81526001600160a01b03841660048201526024810182905260448101839052606401610387565b61042384848484035f61056c565b50505050565b6001600160a01b03831661045257604051634b637e8f60e11b81525f6004820152602401610387565b6001600160a01b03821661047b5760405163ec442f0560e01b81525f6004820152602401610387565b6103a983838361063e565b6005546001600160a01b0316331461032a5760405163118cdaa760e01b8152336004820152602401610387565b6001600160a01b0382166104dc5760405163ec442f0560e01b81525f6004820152602401610387565b6103155f838361063e565b600580546001600160a01b038381166001600160a01b0319831681179093556040519116919082907f8be0079c531659141344cd1fd0a4f28419497f9722a3daafe3b4186f6b6457e0905f90a35050565b6001600160a01b03821661056157604051634b637e8f60e11b81525f6004820152602401610387565b610315825f8361063e565b6001600160a01b0384166105955760405163e602df0560e01b81525f6004820152602401610387565b6001600160a01b0383166105be57604051634a1406b160e11b81525f6004820152602401610387565b6001600160a01b038085165f908152600160209081526040808320938716835292905220829055801561042357826001600160a01b0316846001600160a01b03167f8c5be1e5ebec7d5bd14f71427d1e84f3dd0314c0f7b2291e5b200ac8c7c3b9258460405161063091815260200190565b60405180910390a350505050565b6001600160a01b038316610668578060025f82825461065d91906108b5565b909155506106d89050565b6001600160a01b0383165f90815260208190526040902054818110156106ba5760405163391434e360e21b81526001600160a01b03851660048201526024810182905260448101839052606401610387565b6001600160a01b0384165f9081526020819052604090209082900390555b6001600160a01b0382166106f457600280548290039055610712565b6001600160a01b0382165f9081526020819052604090208054820190555b816001600160a01b0316836001600160a01b03167fddf252ad1be2c89b69c2b068fc378daa952ba7f163c4a11628f55a4df523b3ef8360405161075791815260200190565b60405180910390a3505050565b602081525f82518060208401525f5b818110156107905760208186018101516040868401015201610773565b505f604082850101526040601f19601f83011684010191505092915050565b80356001600160a01b03811681146107c5575f80fd5b919050565b5f80604083850312156107db575f80fd5b6107e4836107af565b946020939093013593505050565b5f805f60608486031215610804575f80fd5b61080d846107af565b925061081b602085016107af565b929592945050506040919091013590565b5f6020828403121561083c575f80fd5b610845826107af565b9392505050565b5f806040838503121561085d575f80fd5b610866836107af565b9150610874602084016107af565b90509250929050565b600181811c9082168061089157607f821691505b6020821081036108af57634e487b7160e01b5f52602260045260245ffd5b50919050565b808201808211156102da57634e487b7160e01b5f52601160045260245ffdfea2646970667358221220b84855c290a6086cee29136e00abbc8b02ee58fb591f88342f516ba1a76a459364736f6c634300081a003300000000000000000000000015fc323dfe5d5dcfbeedc25cecbf57f676634d77",
        "nonce": "0xca3",
        "chainId": "0x82bd"
      },
      "additionalContracts": [],
      "isFixedGasLimit": false
    },
    {
      "hash": "0x9e0369effc417e0fb460e086427d4c6b4372cf4cd37740be0b718c87387c53b1",
      "transactionType": "CALL",
      "contractName": "NonRebasingLST",
      "contractAddress": "0xcc1703ea6af044c0df327426ae37eaece41138aa",
      "function": "mint(address,uint256)",
      "arguments": [
        "0x15fc323DFE5D5DCfbeEdc25CEcbf57f676634d77",
        "100000000000000000000000000"
      ],
      "transaction": {
        "from": "0x15fc323dfe5d5dcfbeedc25cecbf57f676634d77",
        "to": "0xcc1703ea6af044c0df327426ae37eaece41138aa",
        "gas": "0x17d4d",
        "value": "0x0",
        "input": "0x40c10f1900000000000000000000000015fc323dfe5d5dcfbeedc25cecbf57f676634d7700000000000000000000000000000000000000000052b7d2dcc80cd2e4000000",
        "nonce": "0xca4",
        "chainId": "0x82bd"
      },
      "additionalContracts": [],
      "isFixedGasLimit": false
    },
    {
      "hash": "0x69fffae9062d19f531e8b00ec0cec705544bb1ec16d68c441e99527720d65c5d",
      "transactionType": "CALL",
      "contractName": "NonRebasingLST",
      "contractAddress": "0xcc1703ea6af044c0df327426ae37eaece41138aa",
      "function": "mint(address,uint256)",
      "arguments": [
        "0xd819fFcE7A58b1E835c25617Db7b46a00888B013",
        "99978205869206886789"
      ],
      "transaction": {
        "from": "0x15fc323dfe5d5dcfbeedc25cecbf57f676634d77",
        "to": "0xcc1703ea6af044c0df327426ae37eaece41138aa",
        "gas": "0x1211a",
        "value": "0x0",
        "input": "0x40c10f19000000000000000000000000d819ffce7a58b1e835c25617db7b46a00888b0130000000000000000000000000000000000000000000000056b79f087e2f35985",
        "nonce": "0xca5",
        "chainId": "0x82bd"
      },
      "additionalContracts": [],
      "isFixedGasLimit": false
    },
    {
      "hash": "0x66687d3894dded2a29f7444c2a101a3e5042c7a0f8465a54341a75fb748566f5",
      "transactionType": "CALL",
      "contractName": "NonRebasingLST",
      "contractAddress": "0xcc1703ea6af044c0df327426ae37eaece41138aa",
      "function": "burn(address,uint256)",
      "arguments": [
        "0xd819fFcE7A58b1E835c25617Db7b46a00888B013",
        "99978205869206886789"
      ],
      "transaction": {
        "from": "0x15fc323dfe5d5dcfbeedc25cecbf57f676634d77",
        "to": "0xcc1703ea6af044c0df327426ae37eaece41138aa",
        "gas": "0xb4f4",
        "value": "0x0",
        "input": "0x9dc29fac000000000000000000000000d819ffce7a58b1e835c25617db7b46a00888b0130000000000000000000000000000000000000000000000056b79f087e2f35985",
        "nonce": "0xca6",
        "chainId": "0x82bd"
      },
      "additionalContracts": [],
      "isFixedGasLimit": false
    }
  ],
  "receipts": [
    {
      "status": "0x1",
      "cumulativeGasUsed": "0x9aa79",
      "logs": [
        {
          "address": "0xcc1703ea6af044c0df327426ae37eaece41138aa",
          "topics": [
            "0x8be0079c531659141344cd1fd0a4f28419497f9722a3daafe3b4186f6b6457e0",
            "0x0000000000000000000000000000000000000000000000000000000000000000",
            "0x00000000000000000000000015fc323dfe5d5dcfbeedc25cecbf57f676634d77"
          ],
          "data": "0x",
          "blockHash": "0x5dcbcaaaaa63f853a0b47cfe15ba2ebee19683255f13082b70a3d414e4f0542e",
          "blockNumber": "0x463f",
          "transactionHash": "0x2855b8b1c5a82d311979975a9042942a01c917feae79ed729010e5b9f8e3f40a",
          "transactionIndex": "0x0",
          "logIndex": "0x0",
          "removed": false
        }
      ],
      "logsBloom": "0x00000000000000000000000000000000000008000000000000800000000000000000000000000000000000000000000000000000000000000000040000000000000000000000000000000000000000000001000000000000000000000000000000000000020000000000000000000800000000000000000000000000000000410000000000000000000000000000000000000000000000010000000000000000000000000000000000000000002000000000000000000000000000000000000000000000000000000000002000000000000000000000000000000000000020000000000000000000000000000000000000000000000000000000000000000000",
      "type": "0x0",
      "transactionHash": "0x2855b8b1c5a82d311979975a9042942a01c917feae79ed729010e5b9f8e3f40a",
      "transactionIndex": "0x0",
      "blockHash": "0x5dcbcaaaaa63f853a0b47cfe15ba2ebee19683255f13082b70a3d414e4f0542e",
      "blockNumber": "0x463f",
      "gasUsed": "0x9aa79",
      "effectiveGasPrice": "0x454b7a4e100",
      "from": "0x15fc323dfe5d5dcfbeedc25cecbf57f676634d77",
      "to": null,
      "contractAddress": "0xcc1703ea6af044c0df327426ae37eaece41138aa"
    },
    {
      "status": "0x1",
      "cumulativeGasUsed": "0xabe88",
      "logs": [
        {
          "address": "0xcc1703ea6af044c0df327426ae37eaece41138aa",
          "topics": [
            "0xddf252ad1be2c89b69c2b068fc378daa952ba7f163c4a11628f55a4df523b3ef",
            "0x0000000000000000000000000000000000000000000000000000000000000000",
            "0x00000000000000000000000015fc323dfe5d5dcfbeedc25cecbf57f676634d77"
          ],
          "data": "0x00000000000000000000000000000000000000000052b7d2dcc80cd2e4000000",
          "blockHash": "0x5dcbcaaaaa63f853a0b47cfe15ba2ebee19683255f13082b70a3d414e4f0542e",
          "blockNumber": "0x463f",
          "transactionHash": "0x9e0369effc417e0fb460e086427d4c6b4372cf4cd37740be0b718c87387c53b1",
          "transactionIndex": "0x1",
          "logIndex": "0x0",
          "removed": false
        }
      ],
      "logsBloom": "0x00000000000000000000000000000000000008000000000000000000000000000000000000000000000000000000000000000000000000000000040000000000000000000000000000000008000000000000000000000000000000000000000000000000020000000000000000000800000000000000000000000010000000010000000000000000000000000000000000000000000000010000000000000000000000000000000000000000002000000000000000000000000000000000000000000002000000000000002000000000000000000000000000000000000020000000000000000000000000000000000000000000000000000000000000000000",
      "type": "0x0",
      "transactionHash": "0x9e0369effc417e0fb460e086427d4c6b4372cf4cd37740be0b718c87387c53b1",
      "transactionIndex": "0x1",
      "blockHash": "0x5dcbcaaaaa63f853a0b47cfe15ba2ebee19683255f13082b70a3d414e4f0542e",
      "blockNumber": "0x463f",
      "gasUsed": "0x1140f",
      "effectiveGasPrice": "0x454b7a4e100",
      "from": "0x15fc323dfe5d5dcfbeedc25cecbf57f676634d77",
      "to": "0xcc1703ea6af044c0df327426ae37eaece41138aa",
      "contractAddress": null
    },
    {
      "status": "0x1",
      "cumulativeGasUsed": "0xb8fd7",
      "logs": [
        {
          "address": "0xcc1703ea6af044c0df327426ae37eaece41138aa",
          "topics": [
            "0xddf252ad1be2c89b69c2b068fc378daa952ba7f163c4a11628f55a4df523b3ef",
            "0x0000000000000000000000000000000000000000000000000000000000000000",
            "0x000000000000000000000000d819ffce7a58b1e835c25617db7b46a00888b013"
          ],
          "data": "0x0000000000000000000000000000000000000000000000056b79f087e2f35985",
          "blockHash": "0x5dcbcaaaaa63f853a0b47cfe15ba2ebee19683255f13082b70a3d414e4f0542e",
          "blockNumber": "0x463f",
          "transactionHash": "0x69fffae9062d19f531e8b00ec0cec705544bb1ec16d68c441e99527720d65c5d",
          "transactionIndex": "0x2",
          "logIndex": "0x0",
          "removed": false
        }
      ],
      "logsBloom": "0x000000000000000000000000000000000040000000000000000000000000000000000000000000000000000000000000000000000000000000000c0000000000000000000000000000000008000000000000000000000000000000000000000000000000020000000000000000000800000000000000000000000010000000000000000000000000000000000000000000000000000000010000000000000000000000000000000000000000002000000000000000000000000000000000000000000002000000000000000000000000000000000000000000000000004020000000000000000000000000000000000000000000000000000000000000000000",
      "type": "0x0",
      "transactionHash": "0x69fffae9062d19f531e8b00ec0cec705544bb1ec16d68c441e99527720d65c5d",
      "transactionIndex": "0x2",
      "blockHash": "0x5dcbcaaaaa63f853a0b47cfe15ba2ebee19683255f13082b70a3d414e4f0542e",
      "blockNumber": "0x463f",
      "gasUsed": "0xd14f",
      "effectiveGasPrice": "0x454b7a4e100",
      "from": "0x15fc323dfe5d5dcfbeedc25cecbf57f676634d77",
      "to": "0xcc1703ea6af044c0df327426ae37eaece41138aa",
      "contractAddress": null
    },
    {
      "status": "0x1",
      "cumulativeGasUsed": "0xc0b92",
      "logs": [
        {
          "address": "0xcc1703ea6af044c0df327426ae37eaece41138aa",
          "topics": [
            "0xddf252ad1be2c89b69c2b068fc378daa952ba7f163c4a11628f55a4df523b3ef",
            "0x000000000000000000000000d819ffce7a58b1e835c25617db7b46a00888b013",
            "0x0000000000000000000000000000000000000000000000000000000000000000"
          ],
          "data": "0x0000000000000000000000000000000000000000000000056b79f087e2f35985",
          "blockHash": "0x5dcbcaaaaa63f853a0b47cfe15ba2ebee19683255f13082b70a3d414e4f0542e",
          "blockNumber": "0x463f",
          "transactionHash": "0x66687d3894dded2a29f7444c2a101a3e5042c7a0f8465a54341a75fb748566f5",
          "transactionIndex": "0x3",
          "logIndex": "0x0",
          "removed": false
        }
      ],
      "logsBloom": "0x000000000000000000000000000000000040000000000000000000000000000000000000000000000000000000000000000000000000000000000c0000000000000000000000000000000008000000000000000000000000000000000000000000000000020000000000000000000800000000000000000000000010000000000000000000000000000000000000000000000000000000010000000000000000000000000000000000000000002000000000000000000000000000000000000000000002000000000000000000000000000000000000000000000000004020000000000000000000000000000000000000000000000000000000000000000000",
      "type": "0x0",
      "transactionHash": "0x66687d3894dded2a29f7444c2a101a3e5042c7a0f8465a54341a75fb748566f5",
      "transactionIndex": "0x3",
      "blockHash": "0x5dcbcaaaaa63f853a0b47cfe15ba2ebee19683255f13082b70a3d414e4f0542e",
      "blockNumber": "0x463f",
      "gasUsed": "0x7bbb",
      "effectiveGasPrice": "0x454b7a4e100",
      "from": "0x15fc323dfe5d5dcfbeedc25cecbf57f676634d77",
      "to": "0xcc1703ea6af044c0df327426ae37eaece41138aa",
      "contractAddress": null
    }
  ],
  "libraries": [],
  "pending": [],
  "returns": {},
  "timestamp": 1727707589,
  "chain": 33469,
  "commit": null
}