{
  "transactions": [
    {
      "hash": "0x6e2398b7f7e9e054d289d57cde01aec846594dab5f9149e754d9302b681abc6b",
      "transactionType": "CALL",
      "contractName": null,
      "contractAddress": "0x77986d6bcd7e610808ad5d1cf67df3a9ef893fad",
      "function": "stake()",
      "arguments": [],
      "transaction": {
        "from": "0xd819ffce7a58b1e835c25617db7b46a00888b013",
        "to": "0x77986d6bcd7e610808ad5d1cf67df3a9ef893fad",
        "gas": "0x1ca4a",
        "value": "0x56bc75e2d63100000",
        "input": "0x3a4b66f1",
        "nonce": "0x0",
        "chainId": "0x82bd"
      },
      "additionalContracts": [],
      "isFixedGasLimit": false
    },
    {
      "hash": "0xf206d487e44dbaebb6bc0d02160346cc2478127ff8453847f7b1165295653381",
      "transactionType": "CALL",
      "contractName": null,
      "contractAddress": "0x77986d6bcd7e610808ad5d1cf67df3a9ef893fad",
      "function": "unstake(uint256)",
      "arguments": [
        "99640427318100686792"
      ],
      "transaction": {
        "from": "0xd819ffce7a58b1e835c25617db7b46a00888b013",
        "to": "0x77986d6bcd7e610808ad5d1cf67df3a9ef893fad",
        "gas": "0x16a05",
        "value": "0x0",
        "input": "0x2e17de7800000000000000000000000000000000000000000000000566c9e8ba6b84f7c8",
        "nonce": "0x1",
        "chainId": "0x82bd"
      },
      "additionalContracts": [],
      "isFixedGasLimit": false
    }
  ],
  "receipts": [
    {
      "status": "0x1",
      "cumulativeGasUsed": "0x15590",
      "logs": [
        {
          "address": "0x7d8461b118a9fc4385039775016dbe2b9f2574d6",
          "topics": [
            "0xddf252ad1be2c89b69c2b068fc378daa952ba7f163c4a11628f55a4df523b3ef",
            "0x0000000000000000000000000000000000000000000000000000000000000000",
            "0x000000000000000000000000d819ffce7a58b1e835c25617db7b46a00888b013"
          ],
          "data": "0x00000000000000000000000000000000000000000000000566c9bf2777964b71",
          "blockHash": "0xda1c6cf216a052e4c0606b67f0d5125084c6470681ece331be45851d1ab866af",
          "blockNumber": "0x5989e",
          "transactionHash": "0x6e2398b7f7e9e054d289d57cde01aec846594dab5f9149e754d9302b681abc6b",
          "transactionIndex": "0x0",
          "logIndex": "0x0",
          "removed": false
        }
      ],
      "logsBloom": "0x00000000000000000000000000000000004000000000000000000000000000080000000000000000000000000000000000000000000000000000080000000000000000000000000000000008000000000000000000000000000000000000000000000000020010000000000000000800000000000000000000000010000000000000000000000000000000000000000000000000000000000400000000000000000000000000000000000000000000000000000000000000000000000000000000000002000000000000000000000000000000000000000000000000004020000000000000000000000000000000000000000000000000000000000000000000",
      "type": "0x0",
      "transactionHash": "0x6e2398b7f7e9e054d289d57cde01aec846594dab5f9149e754d9302b681abc6b",
      "transactionIndex": "0x0",
      "blockHash": "0xda1c6cf216a052e4c0606b67f0d5125084c6470681ece331be45851d1ab866af",
      "blockNumber": "0x5989e",
      "gasUsed": "0x15590",
      "effectiveGasPrice": "0x454b7a4e100",
      "from": "0xd819ffce7a58b1e835c25617db7b46a00888b013",
      "to": "0x77986d6bcd7e610808ad5d1cf67df3a9ef893fad",
      "contractAddress": null
    }
  ],
  "libraries": [],
  "pending": [],
  "returns": {},
  "timestamp": 1727676216,
  "chain": 33469,
  "commit": null
}